{
  "address": "0xdF3068136e17C3159775e76004c5CfaD6FaEa1F5",
  "abi": [
    {
      "inputs": [],
      "name": "complete",
      "outputs": [],
      "stateMutability": "payable",
      "type": "function"
    },
    {
      "inputs": [],
      "name": "completed",
      "outputs": [
        {
          "internalType": "bool",
          "name": "",
          "type": "bool"
        }
      ],
      "stateMutability": "view",
      "type": "function"
    },
    {
      "inputs": [],
      "name": "isComplete",
      "outputs": [
        {
          "internalType": "bool",
          "name": "",
          "type": "bool"
        }
      ],
      "stateMutability": "nonpayable",
      "type": "function"
    },
    {
      "inputs": [
        {
          "internalType": "address payable",
          "name": "clearer",
          "type": "address"
        }
      ],
      "name": "reset",
      "outputs": [],
      "stateMutability": "nonpayable",
      "type": "function"
    }
  ],
  "transactionHash": "0x4d77e768f371d0a44389f438498d76ec3438acd3f3b0a9350359df3648573b14",
  "args": [],
  "solcInputHash": "e8a0e8a7d0fc4220b0a41d808cbc92db",
  "bytecode": "0x608060405260008054610100600160a81b03191674c061379c6b397c7bbe8a31ab62e6c1f45b3ace3b0017905534801561003857600080fd5b50610165806100486000396000f3fe60806040526004361061003f5760003560e01c8063522e1177146100445780636b8ab97d1461004e5780639d9a7fe914610081578063b2fa1c9e146100aa575b600080fd5b61004c6100bf565b005b34801561005a57600080fd5b5061004c6004803603602081101561007157600080fd5b50356001600160a01b03166100ce565b34801561008d57600080fd5b5061009661011d565b604080519115158252519081900360200190f35b3480156100b657600080fd5b50610096610126565b6000805460ff19166001179055565b600080546040516001600160a01b0361010090920491909116914780156108fc02929091818181858888f1935050505015801561010f573d6000803e3d6000fd5b50506000805460ff19169055565b60005460ff1681565b60005460ff169056fea2646970667358221220ba97ba6da267b1773b44f48a4430f09999784226e1bc89deb697dd7aee4f096964736f6c63430006070033",
  "devdoc": {
    "methods": {}
  },
  "userdoc": {
    "methods": {}
  },
  "storageLayout": {
    "storage": [
      {
        "astId": 90,
        "contract": "contracts/ExampleExternalContract.sol:ExampleExternalContract",
        "label": "completed",
        "offset": 0,
        "slot": "0",
        "type": "t_bool"
      },
      {
        "astId": 93,
        "contract": "contracts/ExampleExternalContract.sol:ExampleExternalContract",
        "label": "testAccountAddress",
        "offset": 1,
        "slot": "0",
        "type": "t_address_payable"
      }
    ],
    "types": {
      "t_address_payable": {
        "encoding": "inplace",
        "label": "address payable",
        "numberOfBytes": "20"
      },
      "t_bool": {
        "encoding": "inplace",
        "label": "bool",
        "numberOfBytes": "1"
      }
    }
  }
}