{
  "address": "0x1f8E7dD57C4450472Ebcef4823d6d7327EdcCbee",
  "abi": [
    {
      "inputs": [],
      "name": "complete",
      "outputs": [],
      "stateMutability": "payable",
      "type": "function"
    },
    {
      "inputs": [],
      "name": "completed",
      "outputs": [
        {
          "internalType": "bool",
          "name": "",
          "type": "bool"
        }
      ],
      "stateMutability": "view",
      "type": "function"
    },
    {
      "inputs": [],
      "name": "isComplete",
      "outputs": [
        {
          "internalType": "bool",
          "name": "",
          "type": "bool"
        }
      ],
      "stateMutability": "nonpayable",
      "type": "function"
    },
    {
      "inputs": [
        {
          "internalType": "address payable",
          "name": "clearer",
          "type": "address"
        }
      ],
      "name": "reset",
      "outputs": [],
      "stateMutability": "nonpayable",
      "type": "function"
    }
  ],
  "transactionHash": "0x0271492a6b4da8d38f22c87edecc2eca93a73c8518c2b8347c11eae8adf218a2",
  "args": [],
  "solcInputHash": "2275badb147a8cfaaef99753d96f1e66",
  "bytecode": "0x608060405234801561001057600080fd5b50610159806100206000396000f3fe60806040526004361061003f5760003560e01c8063522e1177146100445780636b8ab97d1461004e5780639d9a7fe914610081578063b2fa1c9e146100aa575b600080fd5b61004c6100bf565b005b34801561005a57600080fd5b5061004c6004803603602081101561007157600080fd5b50356001600160a01b03166100ce565b34801561008d57600080fd5b50610096610111565b604080519115158252519081900360200190f35b3480156100b657600080fd5b5061009661011a565b6000805460ff19166001179055565b6040516001600160a01b038216904780156108fc02916000818181858888f19350505050158015610103573d6000803e3d6000fd5b50506000805460ff19169055565b60005460ff1681565b60005460ff169056fea264697066735822122097d616ff76e85783b1143f85192847b52552c888853058afffd96a65f941e7d864736f6c63430006070033",
  "devdoc": {
    "methods": {}
  },
  "userdoc": {
    "methods": {}
  },
  "storageLayout": {
    "storage": [
      {
        "astId": 90,
        "contract": "contracts/ExampleExternalContract.sol:ExampleExternalContract",
        "label": "completed",
        "offset": 0,
        "slot": "0",
        "type": "t_bool"
      }
    ],
    "types": {
      "t_bool": {
        "encoding": "inplace",
        "label": "bool",
        "numberOfBytes": "1"
      }
    }
  }
}