{
  "_format": "hh-sol-artifact-1",
  "contractName": "YourCollectible",
  "sourceName": "contracts/YourCollectible.sol",
  "abi": [
    {
      "inputs": [],
      "stateMutability": "nonpayable",
      "type": "constructor"
    },
    {
      "anonymous": false,
      "inputs": [
        {
          "indexed": true,
          "internalType": "address",
          "name": "owner",
          "type": "address"
        },
        {
          "indexed": true,
          "internalType": "address",
          "name": "approved",
          "type": "address"
        },
        {
          "indexed": true,
          "internalType": "uint256",
          "name": "tokenId",
          "type": "uint256"
        }
      ],
      "name": "Approval",
      "type": "event"
    },
    {
      "anonymous": false,
      "inputs": [
        {
          "indexed": true,
          "internalType": "address",
          "name": "owner",
          "type": "address"
        },
        {
          "indexed": true,
          "internalType": "address",
          "name": "operator",
          "type": "address"
        },
        {
          "indexed": false,
          "internalType": "bool",
          "name": "approved",
          "type": "bool"
        }
      ],
      "name": "ApprovalForAll",
      "type": "event"
    },
    {
      "anonymous": false,
      "inputs": [
        {
          "indexed": true,
          "internalType": "address",
          "name": "previousOwner",
          "type": "address"
        },
        {
          "indexed": true,
          "internalType": "address",
          "name": "newOwner",
          "type": "address"
        }
      ],
      "name": "OwnershipTransferred",
      "type": "event"
    },
    {
      "anonymous": false,
      "inputs": [
        {
          "indexed": true,
          "internalType": "address",
          "name": "from",
          "type": "address"
        },
        {
          "indexed": true,
          "internalType": "address",
          "name": "to",
          "type": "address"
        },
        {
          "indexed": true,
          "internalType": "uint256",
          "name": "tokenId",
          "type": "uint256"
        }
      ],
      "name": "Transfer",
      "type": "event"
    },
    {
      "inputs": [
        {
          "internalType": "address",
          "name": "to",
          "type": "address"
        },
        {
          "internalType": "uint256",
          "name": "tokenId",
          "type": "uint256"
        }
      ],
      "name": "approve",
      "outputs": [],
      "stateMutability": "nonpayable",
      "type": "function"
    },
    {
      "inputs": [
        {
          "internalType": "address",
          "name": "owner",
          "type": "address"
        }
      ],
      "name": "balanceOf",
      "outputs": [
        {
          "internalType": "uint256",
          "name": "",
          "type": "uint256"
        }
      ],
      "stateMutability": "view",
      "type": "function"
    },
    {
      "inputs": [],
      "name": "baseURI",
      "outputs": [
        {
          "internalType": "string",
          "name": "",
          "type": "string"
        }
      ],
      "stateMutability": "view",
      "type": "function"
    },
    {
      "inputs": [
        {
          "internalType": "uint256",
          "name": "tokenId",
          "type": "uint256"
        }
      ],
      "name": "getApproved",
      "outputs": [
        {
          "internalType": "address",
          "name": "",
          "type": "address"
        }
      ],
      "stateMutability": "view",
      "type": "function"
    },
    {
      "inputs": [
        {
          "internalType": "address",
          "name": "owner",
          "type": "address"
        },
        {
          "internalType": "address",
          "name": "operator",
          "type": "address"
        }
      ],
      "name": "isApprovedForAll",
      "outputs": [
        {
          "internalType": "bool",
          "name": "",
          "type": "bool"
        }
      ],
      "stateMutability": "view",
      "type": "function"
    },
    {
      "inputs": [
        {
          "internalType": "address",
          "name": "to",
          "type": "address"
        },
        {
          "internalType": "string",
          "name": "tokenURI",
          "type": "string"
        }
      ],
      "name": "mintItem",
      "outputs": [
        {
          "internalType": "uint256",
          "name": "id",
          "type": "uint256"
        }
      ],
      "stateMutability": "nonpayable",
      "type": "function"
    },
    {
      "inputs": [],
      "name": "name",
      "outputs": [
        {
          "internalType": "string",
          "name": "",
          "type": "string"
        }
      ],
      "stateMutability": "view",
      "type": "function"
    },
    {
      "inputs": [],
      "name": "owner",
      "outputs": [
        {
          "internalType": "address",
          "name": "",
          "type": "address"
        }
      ],
      "stateMutability": "view",
      "type": "function"
    },
    {
      "inputs": [
        {
          "internalType": "uint256",
          "name": "tokenId",
          "type": "uint256"
        }
      ],
      "name": "ownerOf",
      "outputs": [
        {
          "internalType": "address",
          "name": "",
          "type": "address"
        }
      ],
      "stateMutability": "view",
      "type": "function"
    },
    {
      "inputs": [],
      "name": "renounceOwnership",
      "outputs": [],
      "stateMutability": "nonpayable",
      "type": "function"
    },
    {
      "inputs": [
        {
          "internalType": "address",
          "name": "from",
          "type": "address"
        },
        {
          "internalType": "address",
          "name": "to",
          "type": "address"
        },
        {
          "internalType": "uint256",
          "name": "tokenId",
          "type": "uint256"
        }
      ],
      "name": "safeTransferFrom",
      "outputs": [],
      "stateMutability": "nonpayable",
      "type": "function"
    },
    {
      "inputs": [
        {
          "internalType": "address",
          "name": "from",
          "type": "address"
        },
        {
          "internalType": "address",
          "name": "to",
          "type": "address"
        },
        {
          "internalType": "uint256",
          "name": "tokenId",
          "type": "uint256"
        },
        {
          "internalType": "bytes",
          "name": "_data",
          "type": "bytes"
        }
      ],
      "name": "safeTransferFrom",
      "outputs": [],
      "stateMutability": "nonpayable",
      "type": "function"
    },
    {
      "inputs": [
        {
          "internalType": "address",
          "name": "operator",
          "type": "address"
        },
        {
          "internalType": "bool",
          "name": "approved",
          "type": "bool"
        }
      ],
      "name": "setApprovalForAll",
      "outputs": [],
      "stateMutability": "nonpayable",
      "type": "function"
    },
    {
      "inputs": [
        {
          "internalType": "bytes4",
          "name": "interfaceId",
          "type": "bytes4"
        }
      ],
      "name": "supportsInterface",
      "outputs": [
        {
          "internalType": "bool",
          "name": "",
          "type": "bool"
        }
      ],
      "stateMutability": "view",
      "type": "function"
    },
    {
      "inputs": [],
      "name": "symbol",
      "outputs": [
        {
          "internalType": "string",
          "name": "",
          "type": "string"
        }
      ],
      "stateMutability": "view",
      "type": "function"
    },
    {
      "inputs": [
        {
          "internalType": "uint256",
          "name": "index",
          "type": "uint256"
        }
      ],
      "name": "tokenByIndex",
      "outputs": [
        {
          "internalType": "uint256",
          "name": "",
          "type": "uint256"
        }
      ],
      "stateMutability": "view",
      "type": "function"
    },
    {
      "inputs": [
        {
          "internalType": "address",
          "name": "owner",
          "type": "address"
        },
        {
          "internalType": "uint256",
          "name": "index",
          "type": "uint256"
        }
      ],
      "name": "tokenOfOwnerByIndex",
      "outputs": [
        {
          "internalType": "uint256",
          "name": "",
          "type": "uint256"
        }
      ],
      "stateMutability": "view",
      "type": "function"
    },
    {
      "inputs": [
        {
          "internalType": "uint256",
          "name": "tokenId",
          "type": "uint256"
        }
      ],
      "name": "tokenURI",
      "outputs": [
        {
          "internalType": "string",
          "name": "",
          "type": "string"
        }
      ],
      "stateMutability": "view",
      "type": "function"
    },
    {
      "inputs": [],
      "name": "totalSupply",
      "outputs": [
        {
          "internalType": "uint256",
          "name": "",
          "type": "uint256"
        }
      ],
      "stateMutability": "view",
      "type": "function"
    },
    {
      "inputs": [
        {
          "internalType": "address",
          "name": "from",
          "type": "address"
        },
        {
          "internalType": "address",
          "name": "to",
          "type": "address"
        },
        {
          "internalType": "uint256",
          "name": "tokenId",
          "type": "uint256"
        }
      ],
      "name": "transferFrom",
      "outputs": [],
      "stateMutability": "nonpayable",
      "type": "function"
    },
    {
      "inputs": [
        {
          "internalType": "address",
          "name": "newOwner",
          "type": "address"
        }
      ],
      "name": "transferOwnership",
      "outputs": [],
      "stateMutability": "nonpayable",
      "type": "function"
    }
  ],
  "bytecode": "0x60806040523480156200001157600080fd5b50604080518082018252600f81526e596f7572436f6c6c65637469626c6560881b602080830191909152825180840190935260038352622ca1a160e91b90830152906200006e6301ffc9a760e01b6001600160e01b036200019f16565b81516200008390600690602085019062000242565b5080516200009990600790602084019062000242565b50620000b56380ac58cd60e01b6001600160e01b036200019f16565b620000d0635b5e139f60e01b6001600160e01b036200019f16565b620000eb63780e9d6360e01b6001600160e01b036200019f16565b5060009050620001036001600160e01b036200022416565b600a80546001600160a01b0319166001600160a01b038316908117909155604051919250906000907f8be0079c531659141344cd1fd0a4f28419497f9722a3daafe3b4186f6b6457e0908290a35060408051808201909152601581527f68747470733a2f2f697066732e696f2f697066732f0000000000000000000000602082015262000199906001600160e01b036200022916565b620002e4565b6001600160e01b03198082161415620001ff576040805162461bcd60e51b815260206004820152601c60248201527f4552433136353a20696e76616c696420696e7465726661636520696400000000604482015290519081900360640190fd5b6001600160e01b0319166000908152602081905260409020805460ff19166001179055565b335b90565b80516200023e90600990602084019062000242565b5050565b828054600181600116156101000203166002900490600052602060002090601f016020900481019282601f106200028557805160ff1916838001178555620002b5565b82800160010185558215620002b5579182015b82811115620002b557825182559160200191906001019062000298565b50620002c3929150620002c7565b5090565b6200022691905b80821115620002c35760008155600101620002ce565b611ffa80620002f46000396000f3fe608060405234801561001057600080fd5b50600436106101375760003560e01c80636352211e116100b857806395d89b411161007c57806395d89b411461043b578063a22cb46514610443578063b88d4fde14610471578063c87b56dd14610537578063e985e9c514610554578063f2fde38b1461058257610137565b80636352211e146103e05780636c0360eb146103fd57806370a0823114610405578063715018a61461042b5780638da5cb5b1461043357610137565b806318160ddd116100ff57806318160ddd1461032357806323b872dd1461032b5780632f745c591461036157806342842e0e1461038d5780634f6ccce7146103c357610137565b806301ffc9a71461013c57806306fdde0314610177578063081812fc146101f4578063095ea7b31461022d578063110bcd451461025b575b600080fd5b6101636004803603602081101561015257600080fd5b50356001600160e01b0319166105a8565b604080519115158252519081900360200190f35b61017f6105cb565b6040805160208082528351818301528351919283929083019185019080838360005b838110156101b95781810151838201526020016101a1565b50505050905090810190601f1680156101e65780820380516001836020036101000a031916815260200191505b509250505060405180910390f35b6102116004803603602081101561020a57600080fd5b5035610662565b604080516001600160a01b039092168252519081900360200190f35b6102596004803603604081101561024357600080fd5b506001600160a01b0381351690602001356106c4565b005b6103116004803603604081101561027157600080fd5b6001600160a01b03823516919081019060408101602082013564010000000081111561029c57600080fd5b8201836020820111156102ae57600080fd5b803590602001918460018302840111640100000000831117156102d057600080fd5b91908080601f01602080910402602001604051908101604052809392919081815260200183838082843760009201919091525092955061079f945050505050565b60408051918252519081900360200190f35b610311610845565b6102596004803603606081101561034157600080fd5b506001600160a01b03813581169160208101359091169060400135610856565b6103116004803603604081101561037757600080fd5b506001600160a01b0381351690602001356108ad565b610259600480360360608110156103a357600080fd5b506001600160a01b038135811691602081013590911690604001356108dc565b610311600480360360208110156103d957600080fd5b50356108f7565b610211600480360360208110156103f657600080fd5b5035610913565b61017f610941565b6103116004803603602081101561041b57600080fd5b50356001600160a01b03166109a2565b610259610a0a565b610211610ac8565b61017f610ad7565b6102596004803603604081101561045957600080fd5b506001600160a01b0381351690602001351515610b38565b6102596004803603608081101561048757600080fd5b6001600160a01b038235811692602081013590911691604082013591908101906080810160608201356401000000008111156104c257600080fd5b8201836020820111156104d457600080fd5b803590602001918460018302840111640100000000831117156104f657600080fd5b91908080601f016020809104026020016040519081016040528093929190818152602001838380828437600092019190915250929550610c3d945050505050565b61017f6004803603602081101561054d57600080fd5b5035610c9b565b6101636004803603604081101561056a57600080fd5b506001600160a01b0381358116916020013516610f1e565b6102596004803603602081101561059857600080fd5b50356001600160a01b0316610f4c565b6001600160e01b0319811660009081526020819052604090205460ff165b919050565b60068054604080516020601f60026000196101006001881615020190951694909404938401819004810282018101909252828152606093909290918301828280156106575780601f1061062c57610100808354040283529160200191610657565b820191906000526020600020905b81548152906001019060200180831161063a57829003601f168201915b505050505090505b90565b600061066d82611061565b6106a85760405162461bcd60e51b815260040180806020018281038252602c815260200180611ec3602c913960400191505060405180910390fd5b506000908152600460205260409020546001600160a01b031690565b60006106cf82610913565b9050806001600160a01b0316836001600160a01b031614156107225760405162461bcd60e51b8152600401808060200182810382526021815260200180611f736021913960400191505060405180910390fd5b806001600160a01b0316610734611074565b6001600160a01b03161480610755575061075581610750611074565b610f1e565b6107905760405162461bcd60e51b8152600401808060200182810382526038815260200180611e166038913960400191505060405180910390fd5b61079a8383611078565b505050565b60006107a9611074565b6001600160a01b03166107ba610ac8565b6001600160a01b031614610815576040805162461bcd60e51b815260206004820181905260248201527f4f776e61626c653a2063616c6c6572206973206e6f7420746865206f776e6572604482015290519081900360640190fd5b61081f600b6110e6565b610829600b6110ef565b905061083583826110f3565b61083f818361122d565b92915050565b60006108516002611290565b905090565b610867610861611074565b8261129b565b6108a25760405162461bcd60e51b8152600401808060200182810382526031815260200180611f946031913960400191505060405180910390fd5b61079a83838361133f565b6001600160a01b03821660009081526001602052604081206108d5908363ffffffff61149d16565b9392505050565b61079a83838360405180602001604052806000815250610c3d565b60008061090b60028463ffffffff6114a916565b509392505050565b600061083f82604051806060016040528060298152602001611e78602991396002919063ffffffff6114c516565b60098054604080516020601f60026000196101006001881615020190951694909404938401819004810282018101909252828152606093909290918301828280156106575780601f1061062c57610100808354040283529160200191610657565b60006001600160a01b0382166109e95760405162461bcd60e51b815260040180806020018281038252602a815260200180611e4e602a913960400191505060405180910390fd5b6001600160a01b038216600090815260016020526040902061083f90611290565b610a12611074565b6001600160a01b0316610a23610ac8565b6001600160a01b031614610a7e576040805162461bcd60e51b815260206004820181905260248201527f4f776e61626c653a2063616c6c6572206973206e6f7420746865206f776e6572604482015290519081900360640190fd5b600a546040516000916001600160a01b0316907f8be0079c531659141344cd1fd0a4f28419497f9722a3daafe3b4186f6b6457e0908390a3600a80546001600160a01b0319169055565b600a546001600160a01b031690565b60078054604080516020601f60026000196101006001881615020190951694909404938401819004810282018101909252828152606093909290918301828280156106575780601f1061062c57610100808354040283529160200191610657565b610b40611074565b6001600160a01b0316826001600160a01b03161415610ba6576040805162461bcd60e51b815260206004820152601960248201527f4552433732313a20617070726f766520746f2063616c6c657200000000000000604482015290519081900360640190fd5b8060056000610bb3611074565b6001600160a01b03908116825260208083019390935260409182016000908120918716808252919093529120805460ff191692151592909217909155610bf7611074565b60408051841515815290516001600160a01b0392909216917f17307eab39ab6107e8899845ad3d59bd9653f200f220920489ca2b5937696c319181900360200190a35050565b610c4e610c48611074565b8361129b565b610c895760405162461bcd60e51b8152600401808060200182810382526031815260200180611f946031913960400191505060405180910390fd5b610c95848484846114d2565b50505050565b6060610ca682611061565b610ce15760405162461bcd60e51b815260040180806020018281038252602f815260200180611f44602f913960400191505060405180910390fd5b60008281526008602090815260409182902080548351601f6002600019610100600186161502019093169290920491820184900484028101840190945280845260609392830182828015610d765780601f10610d4b57610100808354040283529160200191610d76565b820191906000526020600020905b815481529060010190602001808311610d5957829003601f168201915b505050505090506060610d87610941565b9050805160001415610d9b575090506105c6565b815115610e5c5780826040516020018083805190602001908083835b60208310610dd65780518252601f199092019160209182019101610db7565b51815160209384036101000a600019018019909216911617905285519190930192850191508083835b60208310610e1e5780518252601f199092019160209182019101610dff565b6001836020036101000a03801982511681845116808217855250505050505090500192505050604051602081830303815290604052925050506105c6565b80610e6685611524565b6040516020018083805190602001908083835b60208310610e985780518252601f199092019160209182019101610e79565b51815160209384036101000a600019018019909216911617905285519190930192850191508083835b60208310610ee05780518252601f199092019160209182019101610ec1565b6001836020036101000a0380198251168184511680821785525050505050509050019250505060405160208183030381529060405292505050919050565b6001600160a01b03918216600090815260056020908152604080832093909416825291909152205460ff1690565b610f54611074565b6001600160a01b0316610f65610ac8565b6001600160a01b031614610fc0576040805162461bcd60e51b815260206004820181905260248201527f4f776e61626c653a2063616c6c6572206973206e6f7420746865206f776e6572604482015290519081900360640190fd5b6001600160a01b0381166110055760405162461bcd60e51b8152600401808060200182810382526026815260200180611da06026913960400191505060405180910390fd5b600a546040516001600160a01b038084169216907f8be0079c531659141344cd1fd0a4f28419497f9722a3daafe3b4186f6b6457e090600090a3600a80546001600160a01b0319166001600160a01b0392909216919091179055565b600061083f60028363ffffffff6115ff16565b3390565b600081815260046020526040902080546001600160a01b0319166001600160a01b03841690811790915581906110ad82610913565b6001600160a01b03167f8c5be1e5ebec7d5bd14f71427d1e84f3dd0314c0f7b2291e5b200ac8c7c3b92560405160405180910390a45050565b80546001019055565b5490565b6001600160a01b03821661114e576040805162461bcd60e51b815260206004820181905260248201527f4552433732313a206d696e7420746f20746865207a65726f2061646472657373604482015290519081900360640190fd5b61115781611061565b156111a9576040805162461bcd60e51b815260206004820152601c60248201527f4552433732313a20746f6b656e20616c7265616479206d696e74656400000000604482015290519081900360640190fd5b6111b56000838361079a565b6001600160a01b03821660009081526001602052604090206111dd908263ffffffff61160b16565b506111f06002828463ffffffff61161716565b5060405181906001600160a01b038416906000907fddf252ad1be2c89b69c2b068fc378daa952ba7f163c4a11628f55a4df523b3ef908290a45050565b61123682611061565b6112715760405162461bcd60e51b815260040180806020018281038252602c815260200180611eef602c913960400191505060405180910390fd5b6000828152600860209081526040909120825161079a92840190611cb3565b600061083f826110ef565b60006112a682611061565b6112e15760405162461bcd60e51b815260040180806020018281038252602c815260200180611dea602c913960400191505060405180910390fd5b60006112ec83610913565b9050806001600160a01b0316846001600160a01b031614806113275750836001600160a01b031661131c84610662565b6001600160a01b0316145b8061133757506113378185610f1e565b949350505050565b826001600160a01b031661135282610913565b6001600160a01b0316146113975760405162461bcd60e51b8152600401808060200182810382526029815260200180611f1b6029913960400191505060405180910390fd5b6001600160a01b0382166113dc5760405162461bcd60e51b8152600401808060200182810382526024815260200180611dc66024913960400191505060405180910390fd5b6113e783838361079a565b6113f2600082611078565b6001600160a01b038316600090815260016020526040902061141a908263ffffffff61162d16565b506001600160a01b0382166000908152600160205260409020611443908263ffffffff61160b16565b506114566002828463ffffffff61161716565b5080826001600160a01b0316846001600160a01b03167fddf252ad1be2c89b69c2b068fc378daa952ba7f163c4a11628f55a4df523b3ef60405160405180910390a4505050565b60006108d58383611639565b60008080806114b8868661169d565b9097909650945050505050565b6000611337848484611718565b6114dd84848461133f565b6114e9848484846117e2565b610c955760405162461bcd60e51b8152600401808060200182810382526032815260200180611d6e6032913960400191505060405180910390fd5b60608161154957506040805180820190915260018152600360fc1b60208201526105c6565b8160005b811561156157600101600a8204915061154d565b60608167ffffffffffffffff8111801561157a57600080fd5b506040519080825280601f01601f1916602001820160405280156115a5576020820181803683370190505b50859350905060001982015b83156115f657600a840660300160f81b828280600190039350815181106115d457fe5b60200101906001600160f81b031916908160001a905350600a840493506115b1565b50949350505050565b60006108d58383611962565b60006108d5838361197a565b600061133784846001600160a01b0385166119c4565b60006108d58383611a5b565b8154600090821061167b5760405162461bcd60e51b8152600401808060200182810382526022815260200180611d4c6022913960400191505060405180910390fd5b82600001828154811061168a57fe5b9060005260206000200154905092915050565b8154600090819083106116e15760405162461bcd60e51b8152600401808060200182810382526022815260200180611ea16022913960400191505060405180910390fd5b60008460000184815481106116f257fe5b906000526020600020906002020190508060000154816001015492509250509250929050565b600082815260018401602052604081205482816117b35760405162461bcd60e51b81526004018080602001828103825283818151815260200191508051906020019080838360005b83811015611778578181015183820152602001611760565b50505050905090810190601f1680156117a55780820380516001836020036101000a031916815260200191505b509250505060405180910390fd5b508460000160018203815481106117c657fe5b9060005260206000209060020201600101549150509392505050565b60006117f6846001600160a01b0316611b21565b61180257506001611337565b6060611928630a85bd0160e11b611817611074565b88878760405160240180856001600160a01b03166001600160a01b03168152602001846001600160a01b03166001600160a01b0316815260200183815260200180602001828103825283818151815260200191508051906020019080838360005b83811015611890578181015183820152602001611878565b50505050905090810190601f1680156118bd5780820380516001836020036101000a031916815260200191505b5095505050505050604051602081830303815290604052906001600160e01b0319166020820180516001600160e01b038381831617835250505050604051806060016040528060328152602001611d6e603291396001600160a01b038816919063ffffffff611b2716565b9050600081806020019051602081101561194157600080fd5b50516001600160e01b031916630a85bd0160e11b1492505050949350505050565b60009081526001919091016020526040902054151590565b60006119868383611962565b6119bc5750815460018181018455600084815260208082209093018490558454848252828601909352604090209190915561083f565b50600061083f565b600082815260018401602052604081205480611a295750506040805180820182528381526020808201848152865460018181018955600089815284812095516002909302909501918255915190820155865486845281880190925292909120556108d5565b82856000016001830381548110611a3c57fe5b90600052602060002090600202016001018190555060009150506108d5565b60008181526001830160205260408120548015611b175783546000198083019190810190600090879083908110611a8e57fe5b9060005260206000200154905080876000018481548110611aab57fe5b600091825260208083209091019290925582815260018981019092526040902090840190558654879080611adb57fe5b6001900381819060005260206000200160009055905586600101600087815260200190815260200160002060009055600194505050505061083f565b600091505061083f565b3b151590565b6060611337848460008585611b3b85611b21565b611b8c576040805162461bcd60e51b815260206004820152601d60248201527f416464726573733a2063616c6c20746f206e6f6e2d636f6e7472616374000000604482015290519081900360640190fd5b60006060866001600160a01b031685876040518082805190602001908083835b60208310611bcb5780518252601f199092019160209182019101611bac565b6001836020036101000a03801982511681845116808217855250505050505090500191505060006040518083038185875af1925050503d8060008114611c2d576040519150601f19603f3d011682016040523d82523d6000602084013e611c32565b606091505b5091509150611c42828286611c4d565b979650505050505050565b60608315611c5c5750816108d5565b825115611c6c5782518084602001fd5b60405162461bcd60e51b8152602060048201818152845160248401528451859391928392604401919085019080838360008315611778578181015183820152602001611760565b828054600181600116156101000203166002900490600052602060002090601f016020900481019282601f10611cf457805160ff1916838001178555611d21565b82800160010185558215611d21579182015b82811115611d21578251825591602001919060010190611d06565b50611d2d929150611d31565b5090565b61065f91905b80821115611d2d5760008155600101611d3756fe456e756d657261626c655365743a20696e646578206f7574206f6620626f756e64734552433732313a207472616e7366657220746f206e6f6e20455243373231526563656976657220696d706c656d656e7465724f776e61626c653a206e6577206f776e657220697320746865207a65726f20616464726573734552433732313a207472616e7366657220746f20746865207a65726f20616464726573734552433732313a206f70657261746f7220717565727920666f72206e6f6e6578697374656e7420746f6b656e4552433732313a20617070726f76652063616c6c6572206973206e6f74206f776e6572206e6f7220617070726f76656420666f7220616c6c4552433732313a2062616c616e636520717565727920666f7220746865207a65726f20616464726573734552433732313a206f776e657220717565727920666f72206e6f6e6578697374656e7420746f6b656e456e756d657261626c654d61703a20696e646578206f7574206f6620626f756e64734552433732313a20617070726f76656420717565727920666f72206e6f6e6578697374656e7420746f6b656e4552433732314d657461646174613a2055524920736574206f66206e6f6e6578697374656e7420746f6b656e4552433732313a207472616e73666572206f6620746f6b656e2074686174206973206e6f74206f776e4552433732314d657461646174613a2055524920717565727920666f72206e6f6e6578697374656e7420746f6b656e4552433732313a20617070726f76616c20746f2063757272656e74206f776e65724552433732313a207472616e736665722063616c6c6572206973206e6f74206f776e6572206e6f7220617070726f766564a26469706673582212200f4078233353cb09843a505e9135c1dc7f563d0afd617efe49e56f4bbaf6344d64736f6c63430006070033",
  "linkReferences": {},
  "deployedLinkReferences": {}
}