{
  "_format": "hh-sol-artifact-1",
  "contractName": "Staker",
  "sourceName": "contracts/Staker.sol",
  "abi": [
    {
      "inputs": [
        {
          "internalType": "address",
          "name": "exampleExternalContractAddress",
          "type": "address"
        }
      ],
      "stateMutability": "nonpayable",
      "type": "constructor"
    },
    {
      "anonymous": false,
      "inputs": [
        {
          "indexed": false,
          "internalType": "address",
          "name": "who",
          "type": "address"
        },
        {
          "indexed": false,
          "internalType": "uint256",
          "name": "amount",
          "type": "uint256"
        }
      ],
      "name": "Stake",
      "type": "event"
    },
    {
      "inputs": [
        {
          "internalType": "address",
          "name": "",
          "type": "address"
        }
      ],
      "name": "balances",
      "outputs": [
        {
          "internalType": "uint256",
          "name": "",
          "type": "uint256"
        }
      ],
      "stateMutability": "view",
      "type": "function"
    },
    {
      "inputs": [],
      "name": "contractComplete",
      "outputs": [
        {
          "internalType": "bool",
          "name": "",
          "type": "bool"
        }
      ],
      "stateMutability": "view",
      "type": "function"
    },
    {
      "inputs": [],
      "name": "deadline",
      "outputs": [
        {
          "internalType": "uint256",
          "name": "",
          "type": "uint256"
        }
      ],
      "stateMutability": "view",
      "type": "function"
    },
    {
      "inputs": [],
      "name": "debug",
      "outputs": [
        {
          "internalType": "string",
          "name": "",
          "type": "string"
        }
      ],
      "stateMutability": "view",
      "type": "function"
    },
    {
      "inputs": [],
      "name": "debugMessage",
      "outputs": [
        {
          "internalType": "string",
          "name": "",
          "type": "string"
        }
      ],
      "stateMutability": "view",
      "type": "function"
    },
    {
      "inputs": [],
      "name": "exampleExternalContract",
      "outputs": [
        {
          "internalType": "contract ExampleExternalContract",
          "name": "",
          "type": "address"
        }
      ],
      "stateMutability": "view",
      "type": "function"
    },
    {
      "inputs": [],
      "name": "execute",
      "outputs": [],
      "stateMutability": "nonpayable",
      "type": "function"
    },
    {
      "inputs": [],
      "name": "openForWithdraw",
      "outputs": [
        {
          "internalType": "bool",
          "name": "",
          "type": "bool"
        }
      ],
      "stateMutability": "view",
      "type": "function"
    },
    {
      "inputs": [],
      "name": "resetContractCompletion",
      "outputs": [],
      "stateMutability": "nonpayable",
      "type": "function"
    },
    {
      "inputs": [],
      "name": "resetContractDeadline",
      "outputs": [],
      "stateMutability": "nonpayable",
      "type": "function"
    },
    {
      "inputs": [],
      "name": "stake",
      "outputs": [],
      "stateMutability": "payable",
      "type": "function"
    },
    {
      "inputs": [],
      "name": "threshold",
      "outputs": [
        {
          "internalType": "uint256",
          "name": "",
          "type": "uint256"
        }
      ],
      "stateMutability": "view",
      "type": "function"
    },
    {
      "inputs": [],
      "name": "timeLeft",
      "outputs": [
        {
          "internalType": "uint256",
          "name": "",
          "type": "uint256"
        }
      ],
      "stateMutability": "view",
      "type": "function"
    },
    {
      "inputs": [
        {
          "internalType": "address payable",
          "name": "toAddress",
          "type": "address"
        }
      ],
      "name": "withdraw",
      "outputs": [],
      "stateMutability": "nonpayable",
      "type": "function"
    },
    {
      "stateMutability": "payable",
      "type": "receive"
    }
  ],
  "bytecode": "0x60a0604081905260006080819052610017918161008a565b50603c42016001556003805461ffff1916905534801561003657600080fd5b506040516200140f3803806200140f8339818101604052602081101561005b57600080fd5b5051600380546001600160a01b03909216620100000262010000600160b01b0319909216919091179055610125565b828054600181600116156101000203166002900490600052602060002090601f016020900481019282601f106100cb57805160ff19168380011785556100f8565b828001600101855582156100f8579182015b828111156100f85782518255916020019190600101906100dd565b50610104929150610108565b5090565b61012291905b80821115610104576000815560010161010e565b90565b6112da80620001356000396000f3fe6080604052600436106100e15760003560e01c8063588ee29b1161007f578063892642011161005957806389264201146103f75780639876a643146104205780639f75f22714610435578063c6c049ea146104665761026a565b8063588ee29b1461034357806361461954146103cd5780637c88a0e5146103e25761026a565b806329dcb0cf116100bb57806329dcb0cf146102de5780633a4b66f1146102f357806342cde4e8146102fb57806351cff8d9146103105761026a565b80631300a6d11461026f5780631a412f891461029657806327e235e3146102ab5761026a565b3661026a576101176040518060400160405280600f81526020016e029aa20a92a102922a1a2a4ab229d1608d1b8152503461047b565b61011f61052d565b1580610132575066038d7ea4c680004710155b15610147576003805461ff0019166101001790555b60035460ff610100909104161515600114156101f45761018f60405180604001604052806011815260200170434f4e545241435420434f4d504c45544560781b81525061054c565b6040518060600160405280603381526020016112426033913980516101bc91600091602090910190610f5d565b5060405162461bcd60e51b81526004018080602001828103825260648152602001806111356064913960800191505060405180910390fd5b600354610100900460ff16610239576102316040518060400160405280600d81526020016c43414c4c494e47205354414b4560981b81525061054c565b6102396105f5565b6102686040518060400160405280600d81526020016c022a722102922a1a2a4ab229d1609d1b8152503461047b565b005b600080fd5b34801561027b57600080fd5b5061028461052d565b60408051918252519081900360200190f35b3480156102a257600080fd5b5061026861082b565b3480156102b757600080fd5b50610284600480360360208110156102ce57600080fd5b50356001600160a01b0316610859565b3480156102ea57600080fd5b5061028461086b565b6102686105f5565b34801561030757600080fd5b50610284610871565b34801561031c57600080fd5b506102686004803603602081101561033357600080fd5b50356001600160a01b031661087c565b34801561034f57600080fd5b50610358610b11565b6040805160208082528351818301528351919283929083019185019080838360005b8381101561039257818101518382015260200161037a565b50505050905090810190601f1680156103bf5780820380516001836020036101000a031916815260200191505b509250505060405180910390f35b3480156103d957600080fd5b50610268610b9f565b3480156103ee57600080fd5b50610268610dd2565b34801561040357600080fd5b5061040c610e7a565b604080519115158252519081900360200190f35b34801561042c57600080fd5b5061040c610e88565b34801561044157600080fd5b5061044a610e91565b604080516001600160a01b039092168252519081900360200190f35b34801561047257600080fd5b50610358610ea6565b61052982826040516024018080602001838152602001828103825284818151815260200191508051906020019080838360005b838110156104c65781810151838201526020016104ae565b50505050905090810190601f1680156104f35780820380516001836020036101000a031916815260200191505b5060408051601f198184030181529190526020810180516001600160e01b03166309710a9d60e41b1790529350610f3c92505050565b5050565b6000600154421015610543574260015403610546565b60005b90505b90565b6105f2816040516024018080602001828103825283818151815260200191508051906020019080838360005b83811015610590578181015183820152602001610578565b50505050905090810190601f1680156105bd5780820380516001836020036101000a031916815260200191505b5060408051601f198184030181529190526020810180516001600160e01b031663104c13eb60e21b1790529250610f3c915050565b50565b600354610100900460ff161561063e5760408051808201909152601280825271436f6e747261637420636f6d706c6574652160701b60209092019182526101bc91600091610f5d565b61064661052d565b6106d15760408051808201909152601480825273446561646c696e6520686173207061737365642160601b602090920191825261068591600091610f5d565b506003805461ff00191661010017905560405162461bcd60e51b815260206004820190815260666024830181905290918291604490910190611038823960800191505060405180910390fd5b6040805160208101918290526000908190526106ed9181610f5d565b506107206040518060400160405280601081526020016f494e53494445205354414b453a20257360801b8152503461047b565b336000908152600260205260409020805434810190915566038d7ea4c6800047106107ed57600360029054906101000a90046001600160a01b03166001600160a01b031663522e1177476040518263ffffffff1660e01b81526004016000604051808303818588803b15801561079557600080fd5b505af11580156107a9573d6000803e3d6000fd5b50506003805461ff001916610100179055505060408051606081019091526033808252909150611242602083013980516107eb91600091602090910190610f5d565b505b6040805133815234602082015281517febedb8b3c678666e7f36970bc8f57abf6d8fa2e828c0da91ea5b75bf68ed101a929181900390910190a1505b565b603c42016001556003805461ffff191690556040805160208101918290526000908190526105f29181610f5d565b60026020526000908152604090205481565b60015481565b66038d7ea4c6800081565b600360029054906101000a90046001600160a01b03166001600160a01b031663b2fa1c9e6040518163ffffffff1660e01b8152600401602060405180830381600087803b1580156108cc57600080fd5b505af11580156108e0573d6000803e3d6000fd5b505050506040513d60208110156108f657600080fd5b5051156109625760405180608001604052806042815260200161120060429139805161092a91600091602090910190610f5d565b5060405162461bcd60e51b81526004018080602001828103825260428152602001806112006042913960600191505060405180910390fd5b60035460ff1615610a37576001600160a01b0381166000908152600260205260408120805491905580156109cc576040516001600160a01b0383169082156108fc029083906000818181858888f193505050501580156109c6573d6000803e3d6000fd5b50610a31565b6040518060600160405280603081526020016112756030913980516109f991600091602090910190610f5d565b5060405162461bcd60e51b815260040180806020018281038252602f815260200180611199602f913960400191505060405180910390fd5b506105f2565b6000610a4161052d565b1115610aac57604051806080016040528060428152602001610ff6604291398051610a7491600091602090910190610f5d565b5060405162461bcd60e51b8152600401808060200182810382526042815260200180610ff66042913960600191505060405180910390fd5b60405180608001604052806043815260200161109e604391398051610ad991600091602090910190610f5d565b5060405162461bcd60e51b815260040180806020018281038252604381526020018061109e6043913960600191505060405180910390fd5b6000805460408051602060026001851615610100026000190190941693909304601f81018490048402820184019092528181529291830182828015610b975780601f10610b6c57610100808354040283529160200191610b97565b820191906000526020600020905b815481529060010190602001808311610b7a57829003601f168201915b505050505081565b600360029054906101000a90046001600160a01b03166001600160a01b031663b2fa1c9e6040518163ffffffff1660e01b8152600401602060405180830381600087803b158015610bef57600080fd5b505af1158015610c03573d6000803e3d6000fd5b505050506040513d6020811015610c1957600080fd5b505115610c4d5760405180608001604052806042815260200161120060429139805161092a91600091602090910190610f5d565b66038d7ea4c680004710610d1457600360029054906101000a90046001600160a01b03166001600160a01b031663522e1177476040518263ffffffff1660e01b81526004016000604051808303818588803b158015610cab57600080fd5b505af1158015610cbf573d6000803e3d6000fd5b505060408051808201909152601280825271436f6e747261637420636f6d706c6574652160701b6020909201918252610cff945060009350909150610f5d565b506003805461ff001916610100179055610829565b610d1c61052d565b610db6576003805461ff001960ff1990911660011716610100179055336000908152600260205260409020548015610d81576040518060800160405280605481526020016110e1605491398051610d7b91600091602090910190610f5d565b50610db0565b6040518060600160405280603881526020016111c8603891398051610dae91600091602090910190610f5d565b505b50610829565b6040805160208101918290526000908190526105f29181610f5d565b42603c016001556003805461ffff19169081905560408051636b8ab97d60e01b81523360048201529051620100009092046001600160a01b031691636b8ab97d9160248082019260009290919082900301818387803b158015610e3457600080fd5b505af1158015610e48573d6000803e3d6000fd5b5050336000908152600260209081526040808320839055805191820190819052908290526105f2935090915081610f5d565b600354610100900460ff1681565b60035460ff1681565b6003546201000090046001600160a01b031681565b60008054604080516020601f6002600019610100600188161502019095169490940493840181900481028201810190925282815260609390929091830182828015610f325780601f10610f0757610100808354040283529160200191610f32565b820191906000526020600020905b815481529060010190602001808311610f1557829003601f168201915b5050505050905090565b80516a636f6e736f6c652e6c6f67602083016000808483855afa5050505050565b828054600181600116156101000203166002900490600052602060002090601f016020900481019282601f10610f9e57805160ff1916838001178555610fcb565b82800160010185558215610fcb579182015b82811115610fcb578251825591602001919060010190610fb0565b50610fd7929150610fdb565b5090565b61054991905b80821115610fd75760008155600101610fe156fe506c65617365207761697420756e74696c2074686520646561646c696e65206265666f726520617474656d7074696e6720746f2077697468647261772066756e6473446561646c696e65206861732070617373656421204e6f206d6f7265207374616b65206973206265696e672061636365707465642e20596f75722065746820616e6420616e792072656d61696e696e67206761732077696c6c2062652072657665727465642e5468726573686f6c6420776173206d6574206265666f726520646561646c696e652120596f752063616e206e6f7420776974686472617720796f75722066756e64732e54686520646561646c696e652068617320657870697265642c2074686520657468207468726573686f6c6420776173206e6f74206d65742e20506c6561736520776974686472617720796f75722066756e64732e436f6e747261637420636f6d706c65746521204e6f206d6f7265207374616b65206973206265696e672061636365707465642e20596f75722065746820616e6420616e792072656d61696e696e67206761732077696c6c2062652072657665727465642e546865726520617265206e6f2066756e647320746f20776974686472617720666f722074686973206164647265737354686520646561646c696e652068617320657870697265642c2074686520657468207468726573686f6c6420776173206e6f74206d65742e436f6e74726163742068617320636f6d706c65746564207375636365737366756c6c792e204e6f206d6f726520616374696f6e732063616e2062652074616b656e2e436f6e747261637420636f6d706c65746521204e6f206d6f7265207374616b65206973206265696e672061636365707465642e546865726520617265206e6f2066756e647320746f20776974686472617720666f72207468697320616464726573732ea26469706673582212206b4e004528d0569ab616c03a8e35d609852f09f121e21c084c0a944a5470151a64736f6c63430006070033",
  "linkReferences": {},
  "deployedLinkReferences": {}
}